:100000000C9462000C943D020C946A020C948A00D9
:100010000C948A000C948A000C948A000C948A0038
:100020000C948A000C948A000C948A000C948A0028
:100030000C948A000C948A000C948A000C948A0018
:100040000C9497020C948A000C948A000C948A00F9
:100050000C948A000C948A000C948A000C948A00F8
:100060000C948A000C948A00000000080002010031
:100070000003040700000000000000000102040863
:100080001020408001020408102001020408102002
:10009000040404040404040402020202020203032E
:1000A00003030303000000002300260029000000D2
:1000B0000000250028002B0000000000240027007D
:1000C0002A00BB0111241FBECFEFD8E0DEBFCDBF99
:1000D00011E0A0E0B1E0EAE4FCE002C005900D927E
:1000E000A630B107D9F721E0A6E0B1E001C01D922A
:1000F000A732B207E1F710E0C4ECD0E004C02297C9
:10010000FE010E941F06C23CD107C9F70E94860467
:100110000C9423060C940000CF93DF93C82FD62FA6
:10012000823040F461E082E00E944F04C11108C0B7
:1001300061E007C060E082E00E944F04C230C1F37A
:1001400060E084E00E944F046D2F70E089E0DF9151
:10015000CF910C948E03DC01ED91FD918081ED91A6
:10016000FD919081ED91FD916C9163708E2309F06A
:1001700064609F2309F06860E8ECF0E0E60FF11D91
:10018000659565956D936D917D918D919D91099486
:1001900023C01AC012C016C010C01EC009C014C0AF
:1001A00013C006C019C009C00DC007C00DC014C0DF
:1001B00062507040804090400BC061507040804061
:1001C000904006C06E5F01C06F5F7F4F8F4F9F4FA3
:1001D0009E938E937E936E930895809118019091D3
:1001E00019010C94AB00CF93DF93EC01C93E83E07F
:1001F000D80734F4C730D105D4F4C7E0D0E017C035
:10020000C8EED3E014C085E00E9471038C179D07EF
:1002100024F462EF81E00E948C0085E00E9471036B
:10022000C817D90724F462EF82E00E948C0085E0B1
:100230000E9471038C179D0731F760E083E0DF9126
:10024000CF910C948C0061E082E00E94160461E082
:1002500084E00E94160461E089E00E94160460E0D8
:1002600082E00E944F0460E084E00E944F0460E05E
:1002700070E089E00E948E0388EE93E00E94F30014
:10028000F89410920D0110920E0110920F0110922D
:1002900010017894089580911101823030F4F8941F
:1002A00086E091E00E94AB0001C0F89480910D01BE
:1002B00090910E01A0910F01B091100178949C01D2
:1002C0009093150180931401809112019091130174
:1002D000AC0143505109241735072CF003968217BF
:1002E00093070CF042C064EF71E080E090E00E9460
:1002F000040380911101823030F4F89486E091E09B
:100300000E94AB0001C0F89480910D0190910E0104
:10031000A0910F01B09110017894909315018093F2
:100320001401BC01882777FD8095982F0E942E0527
:10033000209100013091010140910201509103018F
:100340000E94BA0520E030E04AE754E40E94970496
:100350000E94FB04CB010E94F30080911401909154
:100360001501909313018093120161E070E080E029
:1003700090E00C94040362E083E00E94160462E0C3
:100380008BE00E941604E3E9F0E0E491F0E0EE0F68
:10039000FF1FEC55FF4F8591949190930701809337
:1003A0000601EFE7F0E0E491E0930A01EBE9F0E009
:1003B000E491F0E0EE0FFF1FEC55FF4F8591949113
:1003C0009093090180930801E7E8F0E0E491E0935D
:1003D0000B0110920D0110920E0110920F0110925C
:1003E000100180ED97E00E942C03E0910601F0914E
:1003F0000701908180910A01982381E009F480E04F
:10040000E0910801F0910901908120910B01922364
:1004100009F0826080930C0186E091E090931901CD
:100420008093180141E050E06DEE70E081E00E94A1
:100430001D0281E08093110108958230E8F4E82FD5
:10044000F0E0EE0FFF1FE65EFE4F718360838130A8
:1004500041F0809169008C7F842B80936900E89A39
:10046000089580916900440F551F440F551F837FE5
:10047000842B80936900E99A08951F920F920FB61A
:100480000F9211242F933F934F935F936F937F931A
:100490008F939F93AF93BF93EF93FF9380911A0134
:1004A00090911B01892B29F0E0911A01F0911B0119
:1004B0000995FF91EF91BF91AF919F918F917F919E
:1004C0006F915F914F913F912F910F900FBE0F90C1
:1004D0001F9018951F920F920FB60F9211242F9311
:1004E0003F934F935F936F937F938F939F93AF93BC
:1004F000BF93EF93FF9380911C0190911D01892B75
:1005000029F0E0911C01F0911D010995FF91EF91F7
:10051000BF91AF919F918F917F916F915F914F911B
:100520003F912F910F900FBE0F901F9018951F9223
:100530000F920FB60F9211242F933F938F939F9397
:10054000AF93BF9380911F0190912001A091210151
:10055000B091220130911E0123E0230F2D3720F4AA
:100560000196A11DB11D05C026E8230F0296A11D0D
:10057000B11D20931E0180931F0190932001A09331
:100580002101B09322018091230190912401A09137
:100590002501B09126010196A11DB11D8093230173
:1005A00090932401A0932501B0932601BF91AF91B0
:1005B0009F918F913F912F910F900FBE0F901F90A1
:1005C00018953FB7F8948091230190912401A09150
:1005D0002501B091260126B5A89B05C02F3F19F033
:1005E0000196A11DB11D3FBF6627782F892F9A2F35
:1005F000620F711D811D911D42E0660F771F881FDC
:10060000991F4A95D1F70895CF92DF92EF92FF920A
:10061000CF93DF936B017C010E94E102EB01C114D7
:10062000D104E104F10489F00E9495040E94E102E2
:100630006C1B7D0B683E734090F381E0C81AD108B3
:10064000E108F108C851DC4FEACFDF91CF91FF906C
:10065000EF90DF90CF900895019739F0880F991FA0
:10066000880F991F02970197F1F70895789484B540
:10067000826084BD84B5816084BD85B5826085BD9E
:1006800085B5816085BDEEE6F0E080818160808384
:10069000E1E8F0E010828081826080838081816067
:1006A0008083E0E8F0E0808181608083E1EBF0E02E
:1006B000808184608083E0EBF0E0808181608083D2
:1006C000EAE7F0E0808184608083808182608083BB
:1006D0008081816080838081806880831092C100E6
:1006E00008958E3008F08E5087702091040190E4B8
:1006F000299F90011124822B80937C0080917A00A5
:10070000806480937A0080917A0086FDFCCF80918E
:1007100078002091790090E0922B08951F93CF9359
:10072000DF93182FEB0161E00E941604209711F46B
:1007300060E004C0CF3FD10539F461E0812FDF9143
:10074000CF911F910C944F04E12FF0E0E859FF4F37
:10075000E491E330F9F048F4E130B9F0E230A1F58A
:1007600084B5806284BDC8BD34C0E730E9F0E830AC
:1007700019F1E43049F58091800080628093800017
:10078000D0938B00C0938A0024C084B5806884BD58
:10079000C7BD1FC080918000806880938000D09387
:1007A0008900C093880015C08091B0008068809354
:1007B000B000C093B3000DC08091B0008062809300
:1007C000B000C093B40005C0C038D1050CF0B5CF5F
:1007D000AFCFDF91CF911F910895833081F028F43E
:1007E000813099F08230A1F008958730A9F08830E7
:1007F000B9F08430D1F4809180008F7D03C0809166
:1008000080008F7780938000089584B58F7702C031
:1008100084B58F7D84BD08958091B0008F7703C02B
:100820008091B0008F7D8093B0000895CF93DF93C7
:1008300090E0FC01E458FF4F2491FC01E057FF4F8A
:100840008491882349F190E0880F991FFC01E854B6
:10085000FF4FA591B49182559F4FFC01C591D49152
:100860009FB7611108C0F8948C91209582238C93D6
:10087000888182230AC0623051F4F8948C91322F1F
:10088000309583238C938881822B888304C0F894CD
:100890008C91822B8C939FBFDF91CF9108950F9302
:1008A0001F93CF93DF931F92CDB7DEB7282F30E091
:1008B000F901E859FF4F8491F901E458FF4F149171
:1008C000F901E057FF4F04910023C9F0882321F07C
:1008D00069830E94ED036981E02FF0E0EE0FFF1FB6
:1008E000E255FF4FA591B4919FB7F8948C91611197
:1008F00003C01095812301C0812B8C939FBF0F9063
:10090000DF91CF911F910F91089508950E943603B2
:100910000E9485040E942301C0E0D0E00E944B01A8
:100920002097E1F30E940000F9CF08955058BB27AB
:10093000AA270ED0E5C0D6D030F0DBD020F031F4BD
:100940009F3F11F41EF4CBC00EF4E095E7FBC1C04D
:10095000E92FE7D080F3BA1762077307840795077A
:1009600018F071F49EF5FFC00EF4E0950B2EBA2F2F
:10097000A02D0B01B90190010C01CA01A0011124A5
:10098000FF27591B99F0593F50F4503E68F11A1651
:10099000F040A22F232F342F4427585FF3CF4695E2
:1009A00037952795A795F0405395C9F77EF41F1604
:1009B000BA0B620B730B840BBAF09150A1F0FF0FCE
:1009C000BB1F661F771F881FC2F70EC0BA0F621FBA
:1009D000731F841F48F4879577956795B795F795AA
:1009E0009E3F08F0B3CF9395880F08F09927EE0F3C
:1009F00097958795089504D06894B111B5C008956E
:100A000098D088F09F5790F0B92F9927B751A0F050
:100A1000D1F0660F771F881F991F1AF0BA95C9F792
:100A200012C0B13081F09FD0B1E008959CC0672F13
:100A3000782F8827B85F39F0B93FCCF38695779542
:100A40006795B395D9F73EF490958095709561952B
:100A50007F4F8F4F9F4F0895E89409C097FB3EF456
:100A600090958095709561957F4F8F4F9F4F9923FB
:100A7000A9F0F92F96E9BB279395F6958795779579
:100A80006795B795F111F8CFFAF4BB0F11F460FF39
:100A90001BC06F5F7F4F8F4F9F4F16C0882311F091
:100AA00096E911C0772321F09EE8872F762F05C0A5
:100AB000662371F096E8862F70E060E02AF09A9540
:100AC000660F771F881FDAF7880F9695879597F935
:100AD000089597F99F6780E870E060E008959FEFC0
:100AE00080EC089500240A941616170618060906C5
:100AF000089500240A941216130614060506089594
:100B0000092E0394000C11F4882352F0BB0F40F41B
:100B1000BF2B11F460FF04C06F5F7F4F8F4F9F4F5B
:100B2000089557FD9058440F551F59F05F3F71F0DD
:100B30004795880F97FB991F61F09F3F79F0879544
:100B40000895121613061406551FF2CF4695F1DFCD
:100B500008C0161617061806991FF1CF869571055D
:100B6000610508940895E894BB2766277727CB0191
:100B700097F908950BD0C4CFB5DF28F0BADF18F08D
:100B8000952309F0A6CFABCF1124EECFCADFA0F397
:100B9000959FD1F3950F50E0551F629FF001729F12
:100BA000BB27F00DB11D639FAA27F00DB11DAA1F31
:100BB000649F6627B00DA11D661F829F2227B00D7E
:100BC000A11D621F739FB00DA11D621F839FA00D09
:100BD000611D221F749F3327A00D611D231F849F59
:100BE000600D211D822F762F6A2F11249F575040B0
:100BF0008AF0E1F088234AF0EE0FFF1FBB1F661F4B
:100C0000771F881F91505040A9F79E3F510570F003
:100C100060CFAACF5F3FECF3983EDCF386957795E3
:100C20006795B795F795E7959F5FC1F7FE2B880FFE
:100C3000911D9695879597F90895EE0FFF1F0590E2
:0A0C4000F491E02D0994F894FFCF21
:060C4A003F35FE3E0100F3
:00000001FF
